:100000000C9462000C9404040C94DD030C948A009C
:100010000C948A000C948A000C948A000C948A0038
:100020000C948A000C948A000C948A000C948A0028
:100030000C948A000C948A000C948A000C948A0018
:100040000C9493030C948A000C9451040C942B048C
:100050000C948A000C948A000C948A000C948A00F8
:100060000C948A000C948A000000000023002600F3
:10007000290000000000240027002A0000000000E2
:10008000250028002B0004040404040404040202D4
:100090000202020203030303030301020408102007
:1000A0004080010204081020010204081020000012
:1000B0000008000201000003040700000000000027
:1000C0000000B40611241FBECFEFD8E0DEBFCDBFC5
:1000D00022E0A0E6B1E001C01D92A332B207E1F731
:1000E00011E0A0E0B1E0E0E0F3E102C005900D9284
:1000F000A036B107D9F710E0C2E6D0E004C02197DE
:10010000FE010E948607C136D107C9F70E94830409
:100110000C947E090C940000833081F028F4813027
:1001200099F08230A9F008958730A9F08830C9F09D
:100130008430B1F4809180008F7D03C08091800075
:100140008F7780938000089584B58F7784BD08955C
:1001500084B58F7DFBCF8091B0008F778093B00006
:1001600008958091B0008F7DF9CF1F93CF93DF93D7
:10017000282F30E0F901E255FF4F8491F901E6564E
:10018000FF4FD491F901EA57FF4FC491CC23A9F056
:10019000162F81110E948C00EC2FF0E0EE0FFF1F54
:1001A000E458FF4FA591B4918FB7F894EC911111D9
:1001B00008C0D095DE23DC938FBFDF91CF911F91D4
:1001C0000895DE2BF8CFCF93DF9390E0FC01E65645
:1001D000FF4F24918A579F4FFC0184918823D1F0CF
:1001E00090E0880F991FFC01EE58FF4FA591B49144
:1001F000FC01E458FF4FC591D49161110EC09FB727
:10020000F8948C91E22FE0958E238C932881E22341
:10021000E8839FBFDF91CF9108958FB7F894EC9159
:10022000E22BEC938FBFF6CF3FB7F89480917A0121
:1002300090917B01A0917C01B0917D0126B5A89B96
:1002400005C02F3F19F00196A11DB11D3FBFBA2F68
:10025000A92F982F8827BC01CD01620F711D811D28
:10026000911D42E0660F771F881F991F4A95D1F7AD
:1002700008950F931F938091670190916801A09159
:100280006901B0916A010196A11DB11D80936701BA
:1002900090936801A0936901B0936A010E941401D0
:1002A0000091040110910501209106013091070190
:1002B000DC01CB01800F911FA21FB31F80936B0144
:1002C00090936C01A0936D01B0936E0100910801B1
:1002D0001091090120910A0130910B01080F191F9B
:1002E0002A1F3B1F00936301109364012093650153
:1002F0003093660181E090E09093700180936F01EC
:100300001F910F9108950895AF92BF92CF92DF92FF
:10031000EF92FF920F931F93CF93DF936C017B01BA
:100320008B01040F151FEB015E01AE18BF08C0174B
:10033000D10759F06991D601ED91FC910190F081BE
:10034000E02DC6010995892B79F7C501DF91CF9181
:100350001F910F91FF90EF90DF90CF90BF90AF90E3
:100360000895FC01538D448D252F30E0842F90E0BB
:10037000821B930B541710F0CF96089501970895A0
:10038000FC01918D828D981761F0A28DAE0FBF2F69
:10039000B11D5D968C91928D9F5F9F73928F90E0BF
:1003A00008958FEF9FEF0895FC01918D828D98172E
:1003B00031F0828DE80FF11D858D90E008958FEF6B
:1003C0009FEF08952FB7F89480917E0190917F015F
:1003D000A0918001B09181012FBF80938A019093F9
:1003E0008B01A0938C01B0938D0182E891E00E9473
:1003F000D40197FF26C02FB7F89480917E01909189
:100400007F01A0918001B09181012FBF40918A01AD
:1004100050918B0160918C0170918D01841B950B23
:10042000A60BB70B4091860150918701609188011E
:100430007091890184179507A607B707B0F28FEF6F
:100440009FEF0895CF92DF92EF92FF92CF930E9499
:10045000E201FC0197FD4EC08D32910521F0C0975D
:100460000A9708F040C0C12CD12C7601C0E0E130E1
:10047000F105D1F0ED32F105D9F1CF01C0970A971E
:1004800098F4AAE0B0E0A70196010E9413076F015B
:10049000FF0FEE08FF08C60ED71EE81EF91E80E308
:1004A000C81AD108E108F10882E891E00E94C00171
:1004B0000E94E201FC01C0970A97C8F2E130F10501
:1004C000B1F2CC2341F0F094E094D094C094C11CDC
:1004D000D11CE11CF11CC701B601CF91FF90EF9038
:1004E000DF90CF90089582E891E00E94C001AFCFE5
:1004F000C1E0DACFC12CD12C7601EDCFFC01918D7A
:10050000228D892F90E0805C9F4F821B91098F7311
:100510009927089582E891E00E947E0221E0892BCC
:1005200009F420E0822F089580E090E0892B29F0E3
:100530000E948A0281110C9400000895FC01A48D90
:10054000A80FB92FB11DA35ABF4F2C91848D90E0F5
:1005500001968F739927848FA689B7892C93A089D8
:10056000B1898C91837080648C93938D848D981362
:1005700006C00288F389E02D80818F7D80830895F5
:10058000EF92FF920F931F93CF93DF93EC0181E0E3
:10059000888F9B8D8C8D98131AC0E889F98980818A
:1005A00085FF15C09FB7F894EE89FF896083E889BD
:1005B000F98980818370806480839FBF81E090E0AF
:1005C000DF91CF911F910F91FF90EF900895F62E3C
:1005D0000B8D10E00F5F1F4F0F731127E02E8C8DD6
:1005E0008E110CC00FB607FCFACFE889F98980811B
:1005F00085FFF5CFCE010E949E02F1CFEB8DEC0F6F
:10060000FD2FF11DE35AFF4FF0829FB7F8940B8F37
:10061000EA89FB8980818062CFCFCF93DF93EC01A1
:10062000888D8823B9F0AA89BB89E889F9898C91DA
:1006300085FD03C0808186FD0DC00FB607FCF7CF96
:100640008C9185FFF2CF808185FFEDCFCE010E9496
:100650009E02E9CFDF91CF910895FC010190002027
:10066000E9F73197AF01481B590BBC0182E891E0D3
:100670000C948401CF92DF92EF92FF920F931F931D
:10068000CF93DF93CDB7DEB7A1970FB6F894DEBF57
:100690000FBECDBF8B010E942D0386E291E00E9428
:1006A0002D030115110519F0C8010E942D0386E2E2
:1006B00091E00E942D0320917101309172014091CF
:1006C00073015091740119A28E010F5D1F4F8AE0D2
:1006D000C82ED12CE12CF12CCA01B901A701960139
:1006E0000E946407605DF80162938F012115310556
:1006F0004105510589F7309719F0CF010E942D036C
:1007000089E291E00E942D03A1960FB6F894DEBF16
:100710000FBECDBFDF91CF911F910F91FF90EF9052
:10072000DF90CF9008951F920F920FB60F92112471
:100730002F933F938F939F93AF93BF9380917E01AD
:1007400090917F01A0918001B09181013091790158
:1007500023E0230F2D3758F50196A11DB11D2093DD
:10076000790180937E0190937F01A0938001B093E3
:10077000810180917A0190917B01A0917C01B091DF
:100780007D010196A11DB11D80937A0190937B019B
:10079000A0937C01B0937D01BF91AF919F918F9108
:1007A0003F912F910F900FBE0F901F90189526E844
:1007B000230F0296A11DB11DD2CF1F920F920FB62B
:1007C0000F9211242F933F934F935F936F937F93D7
:1007D0008F939F93AF93BF93EF93FF93E0910201A9
:1007E000F09103010995FF91EF91BF91AF919F9116
:1007F0008F917F916F915F914F913F912F910F90CA
:100800000FBE0F901F9018951F920F920FB60F9268
:1008100011242F933F934F935F936F937F938F9305
:100820009F93AF93BF93EF93FF93E0910001F091FB
:1008300001010995FF91EF91BF91AF919F918F9128
:100840007F916F915F914F913F912F910F900FBECC
:100850000F901F9018951F920F920FB60F921124B0
:100860002F933F934F935F936F937F938F939F93B8
:10087000AF93BF93EF93FF9382E891E00E949E02B3
:10088000FF91EF91BF91AF919F918F917F916F9168
:100890005F914F913F912F910F900FBE0F901F903E
:1008A00018951F920F920FB60F9211242F938F93CA
:1008B0009F93EF93FF93E0919201F09193018081D8
:1008C000E0919801F091990182FD1BC09081809187
:1008D0009B018F5F8F7320919C01821741F0E09103
:1008E0009B01F0E0EE57FE4F958F80939B01FF91A7
:1008F000EF919F918F912F910F900FBE0F901F90AE
:1009000018958081F4CFCF93DF93CDB7DEB7A19751
:100910000FB6F894DEBF0FBECDBF789484B5826069
:1009200084BD84B5816084BD85B5826085BD85B593
:10093000816085BD80916E00816080936E00109211
:10094000810080918100826080938100809181008C
:10095000816080938100809180008160809380001D
:100960008091B10084608093B1008091B00081607B
:100970008093B00080917A00846080937A008091A7
:100980007A00826080937A0080917A0081608093FF
:100990007A0080917A00806880937A001092C1007A
:1009A000E0919201F091930182E08083E0918E01C9
:1009B000F0918F011082E0919001F091910180E11E
:1009C000808310929A01E0919601F091970186E060
:1009D0008083E0919401F091950180818061808312
:1009E000E0919401F0919501808188608083E0918D
:1009F0009401F0919501808180688083E091940159
:100A0000F091950180818F7D808360E083E00E947A
:100A1000E30060E082E00E94E30060E085E00E9485
:100A2000E30060E086E00E94E30060E087E00E946F
:100A3000E30060E088E00E94E30061E089E00E945A
:100A4000E30061E08AE00E94E30061E08BE00E9445
:100A5000E30060E089E00E94B50060E08AE00E9467
:100A6000B50060E08BE00E94B50089E391E09093CF
:100A70000101809300018091690083608093690087
:100A8000E89A82E891E00E947E02892BD1F30E94CD
:100A9000220270930D0160930C010E942202609368
:100AA00008017093090180930A0190930B010E9441
:100AB00022026093040170930501809306019093D4
:100AC00007010E9414014B015C0140EDC42E47E078
:100AD000D42EE12CF12C0E941401681979098A099D
:100AE0009B09683E734081059105A8F321E0C21A75
:100AF000D108E108F10838EE830E33E0931EA11C03
:100B0000B11CC114D104E104F10429F70E941401BD
:100B100060937501709376018093770190937801CB
:100B2000CE0101967C0193E0492E512C612C712C51
:100B300020E0222E20E0322E32E0C32ED12C0E9463
:100B40001401009175011091760120917701309187
:100B50007801601B710B820B930B60937101709392
:100B6000720180937301909374010E9414014B01F0
:100B70005C0180916F0190917001019709F067C04D
:100B800080916B0190916C01A0916D01B0916E010B
:100B9000A5019401281B390B4A0B5B0BDA01C90133
:100BA000B7FD55C0D0927001C0926F01609167018E
:100BB000709168018091690190916A01E0910C0146
:100BC000F0910D013197E730F105B8F4E651FA4F95
:100BD0000C9486078A06F3059506F10593069E0692
:100BE000A10660FF97C061E08AE00E94B5006CE258
:100BF00071E08BE391E00E943A036091670170918C
:100C000068018091690190916A012AE0A7010E9420
:100C1000E106F70101900020E9F7BF016E197F0995
:100C200090E080E00E94B1088C01009729F0FC015F
:100C30001082B7010E947709B8018BE491E00E940D
:100C40003A030115110519F0C8010E942808809186
:100C50006F01909170010297F1F48091630190917E
:100C60006401A0916501B0916601881A990AAA0AE7
:100C7000BB0AB7FC10C01092700110926F0160E0C7
:100C800089E00E94B50060E08AE00E94B50060E063
:100C90008BE00E94B500B0906201B0926101E6EB7A
:100CA000F0E08491E2EAF0E00491EEE8F0E01491E3
:100CB000112309F456C081110E948C00E12FF0E04D
:100CC000EE0FFF1FE859FF4FA591B4918C910823B7
:100CD00031E020E009F430E0832F922F282F21709B
:100CE00020936201B21651F06CE271E0892B11F48D
:100CF0006FE271E088E591E00E943A03211431042B
:100D000009F41DCF0E948A02882309F418CF0E949B
:100D1000000015CF61E089E00E94B5006CE271E04F
:100D200083E391E068CF60FFF5CF61E08BE00E9444
:100D3000B5006CE271E083E491E05DCF60FDF5CF3A
:100D400052CFA30192010E946407611571058105CC
:100D5000910501F3613071058105910509F443CFD7
:100D6000E4CF90E080E0BACFE2E8F1E013821282B3
:100D700088EE93E0A0E0B0E084839583A683B783F8
:100D800088E191E09183808385EC90E0958784876A
:100D900084EC90E09787868780EC90E0918B808B45
:100DA00081EC90E0938B828B82EC90E0958B848B2E
:100DB00086EC90E0978B868B118E128E138E148E9C
:100DC0000895BB27FA01A62F6217710581059105C9
:100DD000330B30FB66F0AA27660F771F881F991F19
:100DE000AA1FA21710F0A21B63953850A9F7A05DA7
:100DF000AA3308F0A95DA19336F7B111B19310821F
:100E0000CA010C940307DC01FC01672F7191772361
:100E1000E1F7329704C07C916D9370836291AE17B5
:100E2000BF07C8F308950E945507A59F900DB49F72
:100E3000900DA49F800D911D112408952F923F9233
:100E40004F925F926F927F928F929F92AF92BF92DA
:100E5000CF92DF92EF92FF920F931F93CF93DF9386
:100E6000CDB7DEB7CA1BDB0B0FB6F894DEBF0FBEE3
:100E7000CDBF09942A88398848885F846E847D8430
:100E80008C849B84AA84B984C884DF80EE80FD8032
:100E90000C811B81AA81B981CE0FD11D0FB6F894A8
:100EA000DEBF0FBECDBFED010895A29FB001B39F7D
:100EB000C001A39F700D811D1124911DB29F700D63
:100EC000811D1124911D0895A1E21A2EAA1BBB1B9E
:100ED000FD010DC0AA1FBB1FEE1FFF1FA217B30706
:100EE000E407F50720F0A21BB30BE40BF50B661F1C
:100EF000771F881F991F1A9469F7609570958095E0
:100F000090959B01AC01BD01CF010895EE0FFF1F2D
:100F10000590F491E02D09940F931F93CF93DF93E5
:100F20008230910510F482E090E0E0912102F0918E
:100F3000220230E020E0B0E0A0E0309799F42115E3
:100F4000310509F44AC0281B390B24303105D8F586
:100F50008A819B816115710589F1FB0193838283ED
:100F6000FE0111C040815181028113814817590748
:100F7000E0F04817590799F4109761F012960C9316
:100F8000129713961C933296CF01DF91CF911F9148
:100F90000F9108950093210210932202F4CF21159E
:100FA000310551F04217530738F0A901DB019A01CE
:100FB000BD01DF01F801C1CFEF01F9CF909322020B
:100FC00080932102CDCFFE01E20FF31F8193919315
:100FD0002250310939832883D7CF20911F023091C5
:100FE0002002232B41F42091100130911101309304
:100FF000200220931F0220910E0130910F01211534
:10100000310541F42DB73EB74091120150911301C3
:10101000241B350BE0911F02F0912002E217F30729
:10102000A0F42E1B3F0B2817390778F0AC014E5F58
:101030005F4F2417350748F04E0F5F1F5093200273
:1010400040931F02819391939FCFF0E0E0E09CCF0B
:10105000CF93DF930097E9F0FC013297138212825D
:10106000A0912102B0912202ED0130E020E0109722
:10107000A1F420813181820F931F20911F023091B2
:1010800020022817390709F061C0F0932002E0938D
:101090001F02DF91CF910895EA01CE17DF07E8F52F
:1010A0004A815B819E0141155105B1F7E901FB833E
:1010B000EA8349915991C40FD51FEC17FD0761F4DC
:1010C000808191810296840F951FE901998388831D
:1010D000828193819B838A83F0E0E0E012968D9178
:1010E0009C9113970097B9F52D913C911197CD01E3
:1010F0000296820F931F20911F0230912002281721
:10110000390739F6309751F51092220210922102D8
:10111000B0932002A0931F02BCCFD383C28340812F
:101120005181840F951FC817D90761F44E5F5F4F37
:1011300088819981480F591F518340838A819B81FF
:10114000938382832115310509F0B0CFF0932202F9
:10115000E09321029ECFFD01DC01C0CF13821282F9
:10116000D7CFB0E0A0E0E7EBF8E00C9420078C01CB
:10117000009751F4CB010E948C078C01C801CDB7B8
:10118000DEB7E0E10C943C07FC01E60FF71F9C0181
:1011900022503109E217F30708F49DC0D901CD911F
:1011A000DC911197C617D70798F0C530D10530F3F9
:1011B000CE0104978617970708F3C61BD70B229713
:1011C000C193D1936D937C93CF010E942808D6CF11
:1011D0005B01AC1ABD0A4C018C0E9D1EA091210230
:1011E000B0912202512C412CF12CE12C109731F5B9
:1011F00080911F02909120028815990509F05CC02A
:101200004616570608F058C080910E0190910F01C4
:10121000009741F48DB79EB7409112015091130190
:10122000841B950BE817F90708F055C0F0932002CE
:10123000E0931F02F90171836083A0CF8D919C918F
:10124000119712966C90129713967C901397A8158D
:10125000B90559F56C0142E0C40ED11CCA14DB0477
:1012600020F1AC014A195B09DA011296159780F05A
:101270006282738251834083D9016D937C93E11420
:10128000F10471F0D7011396FC93EE93129776CF89
:1012900022968C0F9D1FF90191838083F301EFCF7C
:1012A000F0932202E093210269CF4816590608F410
:1012B0002C017D01D3019ACFCB010E948C077C01C8
:1012C000009749F0AE01B8010E946E09C8010E9462
:1012D0002808870153CF10E000E050CFFB01DC016C
:1012E00002C001900D9241505040D8F70895FB0183
:1012F000DC0101900D920020E1F70895F894FFCFF2
:101300008301830188130000401F000007000000D4
:101310002302800000000000C0028401B1010D031F
:101320007E02C001D401202C000D0A004F6E004F38
:101330006666004C454420343035004C454420342A
:101340003730004C454420353635004672616D65B6
:10135000204E756D62657200426172636F64650054
:00000001FF
